{
  "_format": "hh-sol-artifact-1",
  "contractName": "Greeter",
  "sourceName": "contracts/Greetings.sol",
  "abi": [
    {
      "inputs": [
        {
          "internalType": "string",
          "name": "_greeting",
          "type": "string"
        }
      ],
      "stateMutability": "nonpayable",
      "type": "constructor"
    },
    {
      "inputs": [],
      "name": "greet",
      "outputs": [
        {
          "internalType": "string",
          "name": "",
          "type": "string"
        }
      ],
      "stateMutability": "view",
      "type": "function"
    },
    {
      "inputs": [],
      "name": "printString",
      "outputs": [],
      "stateMutability": "view",
      "type": "function"
    },
    {
      "inputs": [
        {
          "internalType": "string",
          "name": "_greeting",
          "type": "string"
        }
      ],
      "name": "setGreeting",
      "outputs": [],
      "stateMutability": "nonpayable",
      "type": "function"
    }
  ],
  "bytecode": "0x60806040526040518060400160405280600581526020017f68656c6c6f0000000000000000000000000000000000000000000000000000008152506001908051906020019062000051929190620001c0565b503480156200005f57600080fd5b5060405162000c5238038062000c528339818101604052810190620000859190620002ee565b620000d16040518060400160405280601881526020017f54686520696e697469616c206772656574696e6720697320000000000000000081525082620000f160201b620001cb1760201c565b8060009080519060200190620000e9929190620001c0565b50506200055b565b6200019382826040516024016200010a92919062000380565b6040516020818303038152906040527f4b5c4277000000000000000000000000000000000000000000000000000000007bffffffffffffffffffffffffffffffffffffffffffffffffffffffff19166020820180517bffffffffffffffffffffffffffffffffffffffffffffffffffffffff83818316178352505050506200019760201b60201c565b5050565b60008151905060006a636f6e736f6c652e6c6f679050602083016000808483855afa5050505050565b828054620001ce906200046c565b90600052602060002090601f016020900481019282620001f257600085556200023e565b82601f106200020d57805160ff19168380011785556200023e565b828001600101855582156200023e579182015b828111156200023d57825182559160200191906001019062000220565b5b5090506200024d919062000251565b5090565b5b808211156200026c57600081600090555060010162000252565b5090565b6000620002876200028184620003e4565b620003bb565b905082815260208101848484011115620002a657620002a56200053b565b5b620002b384828562000436565b509392505050565b600082601f830112620002d357620002d262000536565b5b8151620002e584826020860162000270565b91505092915050565b60006020828403121562000307576200030662000545565b5b600082015167ffffffffffffffff81111562000328576200032762000540565b5b6200033684828501620002bb565b91505092915050565b60006200034c826200041a565b62000358818562000425565b93506200036a81856020860162000436565b62000375816200054a565b840191505092915050565b600060408201905081810360008301526200039c81856200033f565b90508181036020830152620003b281846200033f565b90509392505050565b6000620003c7620003da565b9050620003d58282620004a2565b919050565b6000604051905090565b600067ffffffffffffffff82111562000402576200040162000507565b5b6200040d826200054a565b9050602081019050919050565b600081519050919050565b600082825260208201905092915050565b60005b838110156200045657808201518184015260208101905062000439565b8381111562000466576000848401525b50505050565b600060028204905060018216806200048557607f821691505b602082108114156200049c576200049b620004d8565b5b50919050565b620004ad826200054a565b810181811067ffffffffffffffff82111715620004cf57620004ce62000507565b5b80604052505050565b7f4e487b7100000000000000000000000000000000000000000000000000000000600052602260045260246000fd5b7f4e487b7100000000000000000000000000000000000000000000000000000000600052604160045260246000fd5b600080fd5b600080fd5b600080fd5b600080fd5b6000601f19601f8301169050919050565b6106e7806200056b6000396000f3fe608060405234801561001057600080fd5b50600436106100415760003560e01c8063156cc76e14610046578063a413686214610050578063cfae32171461006c575b600080fd5b61004e61008a565b005b61006a6004803603810190610065919061043c565b61011f565b005b610074610139565b60405161008191906104be565b60405180910390f35b61011d6001805461009a906105cb565b80601f01602080910402602001604051908101604052809291908181526020018280546100c6906105cb565b80156101135780601f106100e857610100808354040283529160200191610113565b820191906000526020600020905b8154815290600101906020018083116100f657829003601f168201915b5050505050610267565b565b8060009080519060200190610135929190610329565b5050565b606060008054610148906105cb565b80601f0160208091040260200160405190810160405280929190818152602001828054610174906105cb565b80156101c15780601f10610196576101008083540402835291602001916101c1565b820191906000526020600020905b8154815290600101906020018083116101a457829003601f168201915b5050505050905090565b61026382826040516024016101e19291906104e0565b6040516020818303038152906040527f4b5c4277000000000000000000000000000000000000000000000000000000007bffffffffffffffffffffffffffffffffffffffffffffffffffffffff19166020820180517bffffffffffffffffffffffffffffffffffffffffffffffffffffffff8381831617835250505050610300565b5050565b6102fd8160405160240161027b91906104be565b6040516020818303038152906040527f41304fac000000000000000000000000000000000000000000000000000000007bffffffffffffffffffffffffffffffffffffffffffffffffffffffff19166020820180517bffffffffffffffffffffffffffffffffffffffffffffffffffffffff8381831617835250505050610300565b50565b60008151905060006a636f6e736f6c652e6c6f679050602083016000808483855afa5050505050565b828054610335906105cb565b90600052602060002090601f016020900481019282610357576000855561039e565b82601f1061037057805160ff191683800117855561039e565b8280016001018555821561039e579182015b8281111561039d578251825591602001919060010190610382565b5b5090506103ab91906103af565b5090565b5b808211156103c85760008160009055506001016103b0565b5090565b60006103df6103da8461053c565b610517565b9050828152602081018484840111156103fb576103fa610691565b5b610406848285610589565b509392505050565b600082601f8301126104235761042261068c565b5b81356104338482602086016103cc565b91505092915050565b6000602082840312156104525761045161069b565b5b600082013567ffffffffffffffff8111156104705761046f610696565b5b61047c8482850161040e565b91505092915050565b60006104908261056d565b61049a8185610578565b93506104aa818560208601610598565b6104b3816106a0565b840191505092915050565b600060208201905081810360008301526104d88184610485565b905092915050565b600060408201905081810360008301526104fa8185610485565b9050818103602083015261050e8184610485565b90509392505050565b6000610521610532565b905061052d82826105fd565b919050565b6000604051905090565b600067ffffffffffffffff8211156105575761055661065d565b5b610560826106a0565b9050602081019050919050565b600081519050919050565b600082825260208201905092915050565b82818337600083830152505050565b60005b838110156105b657808201518184015260208101905061059b565b838111156105c5576000848401525b50505050565b600060028204905060018216806105e357607f821691505b602082108114156105f7576105f661062e565b5b50919050565b610606826106a0565b810181811067ffffffffffffffff821117156106255761062461065d565b5b80604052505050565b7f4e487b7100000000000000000000000000000000000000000000000000000000600052602260045260246000fd5b7f4e487b7100000000000000000000000000000000000000000000000000000000600052604160045260246000fd5b600080fd5b600080fd5b600080fd5b600080fd5b6000601f19601f830116905091905056fea2646970667358221220954c08d5736845e587e26b97e191fa43b135cc89b0ec710430b04d7b459c5d7564736f6c63430008070033",
  "linkReferences": {},
  "deployedLinkReferences": {}
}